:100000000C9462000C948A000C948A000C948A0070
:100010000C948A000C948A000C948A000C948A0038
:100020000C948A000C948A000C948A000C948A0028
:100030000C948A000C948A000C948A000C948A0018
:100040000C94B1030C948A000C948A000C948A00DE
:100050000C948A000C948A000C948A000C948A00F8
:100060000C948A000C948A00000000080002010031
:100070000003040700000000000000000102040863
:100080001020408001020408102001020408102002
:10009000040404040404040402020202020203032E
:1000A00003030303000000002300260029000000D2
:1000B0000000250028002B0000000000240027007D
:1000C0002A00ED0111241FBECFEFD8E0DEBFCDBF67
:1000D00011E0A0E0B1E0EEE2F4E102C005900D9283
:1000E000A237B107D9F721E0A2E7B1E001C01D9224
:1000F000A13AB207E1F710E0C4ECD0E004C02297C7
:10010000FE010E949907C23CD107C9F70E944D0524
:100110000C94150A0C94000020E040E162E082E7B4
:1001200091E00E94CA0261E081E00E94B40461E0B3
:1001300082E00E94B40461E083E00E94B40461E0C4
:1001400084E00E94B40461E085E00E94B40460E0B1
:100150008FE00E94B40460E0809106010C94B40426
:1001600041E060E082E791E00E94B002809190015E
:10017000909191018433910564F468E071E082E725
:1001800091E00E94A80561E081E00E94ED0460E03A
:100190000EC0C497059780F463E171E082E791E0B7
:1001A0000E94A80560E081E00E94ED0461E082E029
:1001B0000E94ED0460E00FC062E271E082E791E02E
:1001C0000E94A80560E081E00E94ED0460E082E00A
:1001D0000E94ED0461E083E00C94ED0480919201B3
:1001E00090919301892B59F460E084E00E94ED0422
:1001F00081E090E0909393018093920108C061E0C8
:1002000084E00E94ED0410929301109292016AEF33
:1002100070E080E090E00E941E0480918A0190913D
:100220008B0101968430910529F090938B01809386
:100230008A01089510928B0110928A0180918E019B
:1002400090918F01019690938F0180938E01089574
:100250000F931F93CF93DF93CDB7DEB72C970FB6D5
:10026000F894DEBF0FBECDBF8FE00E9423058C0146
:1002700090930701809306018130910509F08EC0AB
:1002800080918C0190918D01892B41F482E791E05E
:100290000E94A90210938D0100938C0180918E0120
:1002A00090918F0140E060E00A970CF44EC082E725
:1002B00091E00E94B0026DE271E082E791E00E945D
:1002C000A80541E060E082E791E00E94B0026CE3A3
:1002D00071E082E791E00E94A80541E069E082E7D1
:1002E00091E00E94B00260918E0170918F014AE00E
:1002F000CE0107960E940207BE01695F7F4FCE01C3
:1003000001960E94E10666E471E0CE0101960E942A
:100310005A07BC0182E791E00E949A05CE0101963E
:100320000E945C06CE0107960E945C0660E084E0B5
:100330000E94ED0461E085E00E94ED0468E273E252
:1003400080E090E00E941E043DC082E791E00E94A0
:10035000B00268E471E082E791E00E94A80541E004
:1003600060E082E791E00E94B00267E571E082E719
:1003700091E00E94A80541E067E082E791E00E94D9
:10038000B00260918E0170918F014AE050E082E7E7
:1003900091E00E9454060E94EE0014C040E060E02C
:1003A00082E791E00E94B0026FE571E082E791E0A0
:1003B0000E94A80587E390E09093910180939001BB
:1003C0000E94B0002C960FB6F894DEBF0FBECDBFD2
:1003D000DF91CF911F910F910895CF92EF920F93DC
:1003E00088E0C82E99E0E92E0AE02BE04CE06DE0B1
:1003F00082E791E00E9485030F91EF90CF900895DE
:10040000CF93DF93EC0160E08E810E94ED0481E0E8
:1004100090E00E94460461E08E810E94ED0481E03C
:1004200090E00E94460460E08E810E94ED0484E624
:1004300090E0DF91CF910C944604CF92DF92EF923F
:10044000FF920F931F93CF93DF937C01C0E0D0E026
:10045000C62ED12C87010C0F1D1F61E0F80187818A
:100460000E94B404B6010C2E02C0759567950A94DB
:10047000E2F76170F80187810E94ED042196C43093
:10048000D10541F7C701DF91CF911F910F91FF90E7
:10049000EF90DF90CF900C940002CF92DF92EF921A
:1004A000FF920F931F93CF93DF937C01C0E0D0E0C6
:1004B000C62ED12C87010C0F1D1F61E0F80187812A
:1004C0000E94B404B6010C2E02C0759567950A947B
:1004D000E2F76170F80187810E94ED042196C8302F
:1004E000D10541F7C701DF91CF911F910F91FF9087
:1004F000EF90DF90CF900C9400021F93CF93DF9387
:10050000EC01162F642F8C810E94ED048D818F3FAA
:1005100019F060E00E94ED048F85612F84FF06C012
:10052000CE01DF91CF911F910C944D0270E084E0D9
:10053000759567958A95E1F7CE010E941D02612F9E
:10054000CE01DF91CF911F910C941D0240E00C94DD
:100550007D0261E00E94A60280ED97E00C944604C3
:10056000443008F043E0FC012389421710F04FEFBC
:10057000420FFC01E40FF11D2489260F2068622F31
:100580000C94A602FC016089262F2460208B6C60ED
:100590000C94A602CF93DF93EC01423018F08F85C4
:1005A00088608F874B8B1C8A80E48D8B6E8B70E00C
:1005B000605C7F4F6F8B222329F0413019F48F85C7
:1005C00084608F8780E593EC0E94460460E08C8114
:1005D0000E94ED0460E08E810E94ED048D818F3FCA
:1005E00019F060E00E94ED046F8564FD1DC063E0BA
:1005F000CE010E941D0284E991E10E94460463E05D
:10060000CE010E941D0284E991E10E94460463E04C
:10061000CE010E941D0286E990E00E94460462E03D
:10062000CE010E941D0216C06062CE010E94A60289
:1006300084E991E10E9446046F856062CE010E94C8
:10064000A60286E990E00E9446046F856062CE01B2
:100650000E94A6026F856062CE010E94A60284E01D
:10066000888BCE010E94C202CE010E94A90282E0C4
:10067000898B66E0CE01DF91CF910C94A6026F9238
:100680007F928F92AF92CF92EF920F931F93CF935F
:10069000DF93CDB7DEB73C01162F842F5D854E85E5
:1006A0003F859889F301848325830683E782C0868A
:1006B000A1868286538744873587968761E00E94AA
:1006C000B404F30185818F3F19F061E00E94B40406
:1006D00061E0F30186810E94B404112319F0F30153
:1006E000178603C080E1F301878720E041E060E1E5
:1006F000C301DF91CF911F910F91EF90CF90AF90F9
:100700008F907F906F900C94CA028F92AF92CF928D
:10071000EF920F93DC0113961C921E921297EDE656
:10072000F1E0ED93FC931F921F921F921F928C2C6D
:10073000AE2CC02EE22E042F2FEF462F61E00E9438
:100740003F030F900F900F900F900F91EF90CF906D
:10075000AF908F90089541E00E947D0281E090E08B
:1007600008951F920F920FB60F9211242F933F936B
:100770008F939F93AF93BF93809195019091960132
:10078000A0919701B09198013091940123E0230F3B
:100790002D3720F40196A11DB11D05C026E8230FB9
:1007A0000296A11DB11D2093940180939501909311
:1007B0009601A0939701B09398018091990190912F
:1007C0009A01A0919B01B0919C010196A11DB11DC0
:1007D0008093990190939A01A0939B01B0939C01FF
:1007E000BF91AF919F918F913F912F910F900FBE2D
:1007F0000F901F9018953FB7F894809199019091B0
:100800009A01A0919B01B0919C0126B5A89B05C0BF
:100810002F3F19F00196A11DB11D3FBF6627782F0C
:10082000892F9A2F620F711D811D911D42E0660F65
:10083000771F881F991F4A95D1F70895CF92DF92AD
:10084000EF92FF92CF93DF936B017C010E94FB0339
:10085000EB01C114D104E104F10489F00E94740792
:100860000E94FB036C1B7D0B683E734090F381E09C
:10087000C81AD108E108F108C851DC4FEACFDF916E
:10088000CF91FF90EF90DF90CF900895019739F0CE
:10089000880F991F880F991F02970197F1F7089504
:1008A000789484B5826084BD84B5816084BD85B54B
:1008B000826085BD85B5816085BDEEE6F0E0808112
:1008C00081608083E1E8F0E0108280818260808333
:1008D000808181608083E0E8F0E0808181608083B6
:1008E000E1EBF0E0808184608083E0EBF0E08081E8
:1008F00081608083EAE7F0E080818460808380818A
:100900008260808380818160808380818068808331
:100910001092C1000895833081F028F4813099F05D
:100920008230A1F008958730A9F08830B9F0843082
:10093000D1F4809180008F7D03C0809180008F77FB
:1009400080938000089584B58F7702C084B58F7D31
:1009500084BD08958091B0008F7703C08091B0006E
:100960008F7D8093B0000895CF93DF9390E0FC01DA
:10097000E458FF4F2491FC01E057FF4F84918823F6
:1009800049F190E0880F991FFC01E854FF4FA591B1
:10099000B49182559F4FFC01C591D4919FB76111CD
:1009A00008C0F8948C91209582238C9388818223AF
:1009B0000AC0623051F4F8948C91322F3095832321
:1009C0008C938881822B888304C0F8948C91822B2D
:1009D0008C939FBFDF91CF9108950F931F93CF9377
:1009E000DF931F92CDB7DEB7282F30E0F901E85929
:1009F000FF4F8491F901E458FF4F1491F901E0573A
:100A0000FF4F04910023C9F0882321F069830E94DD
:100A10008B046981E02FF0E0EE0FFF1FE255FF4FDE
:100A2000A591B4919FB7F8948C91611103C0109572
:100A3000812301C0812B8C939FBF0F90DF91CF91B9
:100A40001F910F910895CF93DF93282F30E0F90184
:100A5000E859FF4F8491F901E458FF4FD491F9010F
:100A6000E057FF4FC491CC2391F081110E948B0479
:100A7000EC2FF0E0EE0FFF1FEC55FF4FA591B49166
:100A80002C912D2381E090E021F480E002C080E0F1
:100A900090E0DF91CF91089508950E9450040E9444
:100AA0004C050E948C00C0E0D0E00E9428012097F5
:100AB000E1F30E940000F9CFCF92DF92EF92FF9214
:100AC0000F931F93CF93DF936C017A01EB01E60E36
:100AD000F71E00E010E0CE15DF0561F06991D60148
:100AE000ED91FC910190F081E02DC6010995080F70
:100AF000191FF1CFC801DF91CF911F910F91FF9086
:100B0000EF90DF90CF9008956115710581F0DB01C2
:100B10000D900020E9F7AD0141505109461B570BDC
:100B2000DC01ED91FC910280F381E02D099480E0DD
:100B300090E00895DC01ED91FC91DB0114964D915C
:100B40005C9115976D917C910280F381E02D099461
:100B50000C948405DC01ED91FC910190F081E02D75
:100B600009948F929F92AF92BF92CF92DF92EF92B1
:100B7000FF920F931F93CF93DF93CDB7DEB7A1976B
:100B80000FB6F894DEBF0FBECDBF7C01C42EE52F9B
:100B9000CB01D22E19A221E02D1510F02AE0D22E81
:100BA0008E010F5D1F4F8D2C912CA12CB12C6C2D23
:100BB0007E2FA50194010E9475078C2DD29E80196D
:100BC0001124015011098A3014F4805D01C0895C40
:100BD000F8018083211531054105510521F0C22E10
:100BE000E32FCA01E4CFB801C7010E948405A19692
:100BF0000FB6F894DEBF0FBECDBFDF91CF911F912E
:100C00000F91FF90EF90DF90CF90BF90AF909F90AB
:100C10008F900895CF92DF92EF92FF920F931F93E0
:100C2000CF93DF93EC016A017B012115310579F443
:100C3000E881F9810190F081E02D642FDF91CF915F
:100C40001F910F91FF90EF90DF90CF9009942A3081
:100C50003105E9F477FF1AC06DE20E94AA058C0104
:100C600044275527BA014C195D096E097F092AE00E
:100C7000CE010E94B105800F911FDF91CF911F918E
:100C80000F91FF90EF90DF90CF9008952AE0B70189
:100C9000A601CE01DF91CF911F910F91FF90EF90B0
:100CA000DF90CF900C94B1059A01AB01662757FDF8
:100CB0006095762F0C940A06FC01808191810C943A
:100CC0003508CF93DF93EC0188819981009711F06B
:100CD0000E943508198218821D821C821B821A828A
:100CE000DF91CF9108950F931F93CF93DF93EC0182
:100CF0008B016F5F7F4F888199810E94C4080097A4
:100D000031F0998388831B830A8381E001C080E0EE
:100D1000DF91CF911F910F910895CF93DF93EC0155
:100D200088819981892B29F08A819B818617970771
:100D300060F4CE010E947306882341F08C819D816E
:100D4000892B19F4E881F981108281E0DF91CF913C
:100D50000895EF92FF920F931F93CF93DF93EC01CF
:100D60007B018A01BA010E948D06811104C0CE0167
:100D70000E94610607C01D830C83B7018881998199
:100D80000E949709CE01DF91CF911F910F91FF90A3
:100D9000EF900895CF93DF93EC01FB01861797073F
:100DA00061F0608171816115710529F0448155817F
:100DB0000E94A90602C00E946106CE01DF91CF9178
:100DC0000895FC011182108213821282158214820E
:100DD0000C94CA06CF93DF93EC016115710561F0A5
:100DE000FB0101900020E9F7AF0141505109461B7A
:100DF000570B0E94A90602C00E946106CE01DF9136
:100E0000CF9108950F931F93CF93DF93CDB7DEB7A4
:100E100062970FB6F894DEBF0FBECDBF8C01CB0139
:100E2000F80111821082138212821582148250E01E
:100E3000BE016F5F7F4F0E949E09BE016F5F7F4FB3
:100E4000C8010E94EA0662960FB6F894DEBF0FBE94
:100E5000CDBFDF91CF911F910F910895EF92FF9237
:100E60000F931F93CF93DF93EC017B010C811D81C6
:100E70006115710511F480E016C04115510591F01E
:100E8000040F151FB8010E948D068823A1F3288145
:100E900039818C819D81B701820F931F0E94970930
:100EA0001D830C8381E0DF91CF911F910F91FF9003
:100EB000EF900895CF93DF93EC016115710569F010
:100EC000FB0101900020E9F7AF0141505109461B99
:100ED000570B0E942E07811103C0CE010E946106AC
:100EE000CE01DF91CF9108950895A1E21A2EAA1B99
:100EF000BB1BFD010DC0AA1FBB1FEE1FFF1FA217CA
:100F0000B307E407F50720F0A21BB30BE40BF50BC6
:100F1000661F771F881F991F1A9469F7609570954F
:100F2000809590959B01AC01BD01CF010895EE0F16
:100F3000FF1F0590F491E02D0994CF93DF93823049
:100F4000910510F482E090E0E0919F01F091A00102
:100F500020E030E0A0E0B0E0309739F140815181ED
:100F600048175907B8F04817590771F482819381DF
:100F7000109729F013969C938E9312972CC0909300
:100F8000A00180939F0127C02115310531F0421740
:100F9000530718F0A901DB0101C0EF019A01BD015F
:100FA000DF010280F381E02DD7CF21153105F9F063
:100FB000281B390B2430310580F48A819B8161150F
:100FC000710521F0FB019383828304C09093A001FB
:100FD00080939F01FE01329644C0FE01E20FF31F91
:100FE0008193919322503109398328833AC020910B
:100FF0009D0130919E01232B41F4209102013091FB
:10100000030130939E0120939D01209100013091B6
:1010100001012115310541F42DB73EB7409104017E
:1010200050910501241B350BE0919D01F0919E012B
:10103000E217F307A0F42E1B3F0B2817390778F0AF
:10104000AC014E5F5F4F2417350748F04E0F5F1F0E
:1010500050939E0140939D018193919302C0E0E0E3
:10106000F0E0CF01DF91CF910895CF93DF93009708
:1010700009F487C0FC01329713821282C0919F014C
:10108000D091A001209781F420813181280F391F50
:1010900080919D0190919E018217930779F5F093BD
:1010A0009E01E0939D016DC0DE0120E030E0AE17AF
:1010B000BF0750F412964D915C9113979D01411515
:1010C000510509F1DA01F3CFB383A2834081518145
:1010D000840F951F8A179B0771F48D919C9111972E
:1010E000840F951F02969183808312968D919C9117
:1010F0001397938382832115310529F4F093A0017E
:10110000E0939F013EC0D9011396FC93EE93129792
:101110004D915D91A40FB51FEA17FB0779F480810B
:101120009181840F951F0296D90111969C938E93FD
:101130008281938113969C938E931297E0E0F0E066
:101140008A819B81009719F0FE01EC01F9CFCE0155
:10115000029628813981820F931F20919D01309141
:101160009E012817390769F4309729F41092A001DD
:1011700010929F0102C013821282D0939E01C093ED
:101180009D01DF91CF910895A0E0B0E0EAECF8E096
:101190000C94E209EC01CB01209719F40E949D0701
:1011A000B8C0FE01E60FF71F9E0122503109E21779
:1011B000F30708F4ACC0D9010D911C9111970617E3
:1011C0001707B8F00530110508F49FC0A801445076
:1011D00051094617570708F498C002501109061B19
:1011E000170B019311936D937C93CF010E943508E7
:1011F0008CC05B01A01AB10A4E01800E911EA09115
:101200009F01B091A001612C712C60E070E01097FB
:1012100009F449C0A815B905C9F5ED90FC901197DE
:10122000670142E0C40ED11CCA14DB0478F1470107
:101230008A189B08640142E0C40ED11C1296BC902F
:1012400012971396AC91B5E0CB16D10440F0B28260
:10125000A38391828082D9018D939C9309C00E5FF4
:101260001F4F0E0D1F1DF90111830083EB2DFA2F67
:101270006115710531F0DB011396FC93EE93129723
:1012800044C0F093A001E0939F013FC06D917C9119
:1012900011976616770608F43B01BD0112960D9072
:1012A000BC91A02DB4CF60919D0170919E016815F5
:1012B0007905E9F468167906D0F44091000150915F
:1012C00001014115510541F44DB75EB7609104012C
:1012D00070910501461B570BE417F507C0F4F09316
:1012E0009E01E0939D01F901918380830EC00E94CD
:1012F0009D077C01009759F0A801BE010E948E094C
:10130000CE010E943508C70104C0CE0102C080E0B2
:1013100090E0CDB7DEB7EEE00C94FE09FB01DC01F6
:1013200002C001900D9241505040D8F70895FB0142
:10133000DC0101900D920020E1F70895453251053E
:1013400020F4423010F00C94A909FB011082CB016B
:101350000895BB274A3031F4992322F4BDE29095D9
:1013600081959F4F0C94B509BB27FB015527AA27F0
:10137000880F991FAA1FA41710F0A41B8395505122
:10138000B9F7A05DAA3308F0A95DA193009779F79A
:10139000B111B1931192CB010C94CE09DC01FC0187
:1013A000672F71917723E1F7329704C07C916D9399
:1013B00070836291AE17BF07C8F308952F923F92D2
:1013C0004F925F926F927F928F929F92AF92BF9255
:1013D000CF92DF92EF92FF920F931F93CF93DF9301
:1013E000CDB7DEB7CA1BDB0B0FB6F894DEBF0FBE5E
:1013F000CDBF09942A88398848885F846E847D84AB
:101400008C849B84AA84B984C884DF80EE80FD80AC
:101410000C811B81AA81B981CE0FD11D0FB6F89422
:0E142000DEBF0FBECDBFED010895F894FFCFE3
:10142E000000A1018000010042414A4F203A7C2079
:10143E002E2E00414445435541444F203A29202E3B
:10144E002E00414C544F203A28202E2E0051554547
:10145E00534F204C4953544F203A29004475726122
:10146E0063696F6E3A007300454348414E444F2006
:10147E0053414C203A29005469656D706F3A00450E
:10148E00535441444F203A290000000000AB035C46
:02149E00050047
:00000001FF
